{
  "contractName": "BalanceChecker",
  "abi": [
    {
      "inputs": [
        {
          "internalType": "address",
          "name": "walletAddress",
          "type": "address"
        },
        {
          "internalType": "address[]",
          "name": "tokenAddresses",
          "type": "address[]"
        }
      ],
      "name": "getBalances",
      "outputs": [
        {
          "components": [
            {
              "internalType": "address",
              "name": "token",
              "type": "address"
            },
            {
              "internalType": "uint256",
              "name": "balance",
              "type": "uint256"
            }
          ],
          "internalType": "struct BalanceChecker.TokenBalance[]",
          "name": "",
          "type": "tuple[]"
        }
      ],
      "stateMutability": "view",
      "type": "function",
      "constant": true
    }
  ],
  "bytecode": "0x608060405234801561001057600080fd5b506106b1806100206000396000f3fe608060405234801561001057600080fd5b506004361061002b5760003560e01c80636a385ae914610030575b600080fd5b61004a600480360381019061004591906103ce565b610060565b6040516100579190610530565b60405180910390f35b60606000825167ffffffffffffffff81111561007f5761007e61028b565b5b6040519080825280602002602001820160405280156100b857816020015b6100a56101d3565b81526020019060019003908161009d5790505b50905060005b83518110156101c85760008482815181106100dc576100db610552565b5b6020026020010151905060008173ffffffffffffffffffffffffffffffffffffffff166370a08231886040518263ffffffff1660e01b81526004016101219190610590565b602060405180830381865afa15801561013e573d6000803e3d6000fd5b505050506040513d601f19601f8201168201806040525081019061016291906105d7565b9050600060405180604001604052808473ffffffffffffffffffffffffffffffffffffffff168152602001838152509050808585815181106101a7576101a6610552565b5b602002602001018190525050505080806101c090610633565b9150506100be565b508091505092915050565b6040518060400160405280600073ffffffffffffffffffffffffffffffffffffffff168152602001600081525090565b6000604051905090565b600080fd5b600080fd5b600073ffffffffffffffffffffffffffffffffffffffff82169050919050565b600061024282610217565b9050919050565b61025281610237565b811461025d57600080fd5b50565b60008135905061026f81610249565b92915050565b600080fd5b6000601f19601f8301169050919050565b7f4e487b7100000000000000000000000000000000000000000000000000000000600052604160045260246000fd5b6102c38261027a565b810181811067ffffffffffffffff821117156102e2576102e161028b565b5b80604052505050565b60006102f5610203565b905061030182826102ba565b919050565b600067ffffffffffffffff8211156103215761032061028b565b5b602082029050602081019050919050565b600080fd5b600061034a61034584610306565b6102eb565b9050808382526020820190506020840283018581111561036d5761036c610332565b5b835b8181101561039657806103828882610260565b84526020840193505060208101905061036f565b5050509392505050565b600082601f8301126103b5576103b4610275565b5b81356103c5848260208601610337565b91505092915050565b600080604083850312156103e5576103e461020d565b5b60006103f385828601610260565b925050602083013567ffffffffffffffff81111561041457610413610212565b5b610420858286016103a0565b9150509250929050565b600081519050919050565b600082825260208201905092915050565b6000819050602082019050919050565b61045f81610237565b82525050565b6000819050919050565b61047881610465565b82525050565b6040820160008201516104946000850182610456565b5060208201516104a7602085018261046f565b50505050565b60006104b9838361047e565b60408301905092915050565b6000602082019050919050565b60006104dd8261042a565b6104e78185610435565b93506104f283610446565b8060005b8381101561052357815161050a88826104ad565b9750610515836104c5565b9250506001810190506104f6565b5085935050505092915050565b6000602082019050818103600083015261054a81846104d2565b905092915050565b7f4e487b7100000000000000000000000000000000000000000000000000000000600052603260045260246000fd5b61058a81610237565b82525050565b60006020820190506105a56000830184610581565b92915050565b6105b481610465565b81146105bf57600080fd5b50565b6000815190506105d1816105ab565b92915050565b6000602082840312156105ed576105ec61020d565b5b60006105fb848285016105c2565b91505092915050565b7f4e487b7100000000000000000000000000000000000000000000000000000000600052601160045260246000fd5b600061063e82610465565b91507fffffffffffffffffffffffffffffffffffffffffffffffffffffffffffffffff82036106705761066f610604565b5b60018201905091905056fea2646970667358221220b03d44076d2e573b204c3fc75ed5c00a78cff84028b6a66fc174a3f1d38a53e164736f6c63430008110033",
  "immutableReferences": {},
  "source": "pragma solidity >=0.4.22;\r\n\r\nimport \"@openzeppelin/contracts/token/ERC20/utils/SafeERC20.sol\";\r\n\r\ncontract BalanceChecker {\r\n\r\n    struct TokenBalance {\r\n        address token;\r\n        uint256 balance;\r\n    }\r\n\r\n    function getBalances(address walletAddress, address[] memory tokenAddresses) public view  returns (TokenBalance[] memory) {\r\n        TokenBalance[] memory balances = new TokenBalance[](tokenAddresses.length);\r\n\r\n        for (uint256 i = 0; i < tokenAddresses.length; i++) {\r\n            address tokenAddress = tokenAddresses[i];\r\n            uint256 tokenBalance = IERC20(tokenAddress).balanceOf(walletAddress);\r\n            TokenBalance memory newBalance = TokenBalance({\r\n                token: tokenAddress,\r\n                balance: tokenBalance\r\n            });\r\n            balances[i] = newBalance;\r\n        }\r\n        return balances;\r\n    }\r\n}\r\n",
  "sourcePath": "D:\\LIM BING SEN_NUS\\Year 3_2022\\InternshipApplication\\Switcheo\\switcheo-backend-intern-code-challenge\\Problem 5\\contracts\\BalanceChecker.sol",
  "compiler": {
    "name": "solc",
    "version": "0.8.17+commit.8df45f5f.Emscripten.clang"
  },
  "schemaVersion": "3.4.11",
  "updatedAt": "2023-02-09T16:45:33.569Z",
  "networkType": "ethereum",
  "devdoc": {
    "kind": "dev",
    "methods": {},
    "version": 1
  },
  "userdoc": {
    "kind": "user",
    "methods": {},
    "version": 1
  }
}